{
  "_format": "hh-sol-artifact-1",
  "contractName": "TemperatureMonitor",
  "sourceName": "contracts/TemperatureMonitor.sol",
  "abi": [
    {
      "anonymous": false,
      "inputs": [
        {
          "indexed": false,
          "internalType": "uint256",
          "name": "temperature",
          "type": "uint256"
        },
        {
          "indexed": false,
          "internalType": "uint256",
          "name": "timestamp",
          "type": "uint256"
        }
      ],
      "name": "TemperatureRegistered",
      "type": "event"
    },
    {
      "inputs": [],
      "name": "getTemperatureCount",
      "outputs": [
        {
          "internalType": "uint256",
          "name": "",
          "type": "uint256"
        }
      ],
      "stateMutability": "view",
      "type": "function"
    },
    {
      "inputs": [
        {
          "internalType": "uint256",
          "name": "_temperature",
          "type": "uint256"
        }
      ],
      "name": "getTemperatureInFloat",
      "outputs": [
        {
          "internalType": "uint256",
          "name": "",
          "type": "uint256"
        }
      ],
      "stateMutability": "pure",
      "type": "function"
    },
    {
      "inputs": [
        {
          "internalType": "uint256",
          "name": "_index",
          "type": "uint256"
        }
      ],
      "name": "getTemperatureRecord",
      "outputs": [
        {
          "internalType": "uint256",
          "name": "",
          "type": "uint256"
        },
        {
          "internalType": "uint256",
          "name": "",
          "type": "uint256"
        }
      ],
      "stateMutability": "view",
      "type": "function"
    },
    {
      "inputs": [
        {
          "internalType": "uint256",
          "name": "_temperature",
          "type": "uint256"
        },
        {
          "internalType": "uint256",
          "name": "timetemp",
          "type": "uint256"
        }
      ],
      "name": "registerTemperature",
      "outputs": [],
      "stateMutability": "nonpayable",
      "type": "function"
    },
    {
      "inputs": [
        {
          "internalType": "uint256",
          "name": "",
          "type": "uint256"
        }
      ],
      "name": "temperatureRecords",
      "outputs": [
        {
          "internalType": "uint256",
          "name": "temperature",
          "type": "uint256"
        },
        {
          "internalType": "uint256",
          "name": "timestamp",
          "type": "uint256"
        }
      ],
      "stateMutability": "view",
      "type": "function"
    }
  ],
  "bytecode": "0x608060405234801561001057600080fd5b506106df806100206000396000f3fe608060405234801561001057600080fd5b50600436106100575760003560e01c8063051139791461005c57806310861b2f1461008d578063415c214c146100ab578063814e6c11146100dc578063b37155da146100f8575b600080fd5b610076600480360381019061007191906103dd565b610128565b604051610084929190610535565b60405180910390f35b6100956101f0565b6040516100a2919061051a565b60405180910390f35b6100c560048036038101906100c091906103dd565b6101fc565b6040516100d3929190610535565b60405180910390f35b6100f660048036038101906100f19190610406565b610230565b005b610112600480360381019061010d91906103dd565b6103be565b60405161011f919061051a565b60405180910390f35b6000806000805490508310610172576040517f08c379a0000000000000000000000000000000000000000000000000000000008152600401610169906104fa565b60405180910390fd5b60008084815481106101ad577f4e487b7100000000000000000000000000000000000000000000000000000000600052603260045260246000fd5b9060005260206000209060020201604051806040016040529081600082015481526020016001820154815250509050806000015181602001519250925050915091565b60008080549050905090565b6000818154811061020c57600080fd5b90600052602060002090600202016000915090508060000154908060010154905082565b60148211610273576040517f08c379a000000000000000000000000000000000000000000000000000000000815260040161026a906104da565b60405180910390fd5b60005b6000805490508110156103245781600082815481106102be577f4e487b7100000000000000000000000000000000000000000000000000000000600052603260045260246000fd5b9060005260206000209060020201600101541415610311576040517f08c379a0000000000000000000000000000000000000000000000000000000008152600401610308906104ba565b60405180910390fd5b808061031c90610579565b915050610276565b50600060405180604001604052808481526020018381525090506000819080600181540180825580915050600190039060005260206000209060020201600090919091909150600082015181600001556020820151816001015550507f397370bd53cb3dd94a368b5b5767e4936806665e03e38caa5b777da4c65c08fd83836040516103b1929190610535565b60405180910390a1505050565b6000819050919050565b6000813590506103d781610692565b92915050565b6000602082840312156103ef57600080fd5b60006103fd848285016103c8565b91505092915050565b6000806040838503121561041957600080fd5b6000610427858286016103c8565b9250506020610438858286016103c8565b9150509250929050565b600061044f60188361055e565b915061045a826105f1565b602082019050919050565b600061047260238361055e565b915061047d8261061a565b604082019050919050565b600061049560138361055e565b91506104a082610669565b602082019050919050565b6104b48161056f565b82525050565b600060208201905081810360008301526104d381610442565b9050919050565b600060208201905081810360008301526104f381610465565b9050919050565b6000602082019050818103600083015261051381610488565b9050919050565b600060208201905061052f60008301846104ab565b92915050565b600060408201905061054a60008301856104ab565b61055760208301846104ab565b9392505050565b600082825260208201905092915050565b6000819050919050565b60006105848261056f565b91507fffffffffffffffffffffffffffffffffffffffffffffffffffffffffffffffff8214156105b7576105b66105c2565b5b600182019050919050565b7f4e487b7100000000000000000000000000000000000000000000000000000000600052601160045260246000fd5b7f54696d657374616d7020616c7265616479206578697374730000000000000000600082015250565b7f54656d7065726174757265206d7573742062652067726561746572207468616e60008201527f2032300000000000000000000000000000000000000000000000000000000000602082015250565b7f496e646578206f7574206f6620626f756e647300000000000000000000000000600082015250565b61069b8161056f565b81146106a657600080fd5b5056fea26469706673582212205f7d46921b68a20cebf907de5ffd27861d2d1d4c9a874ee86068d9d8315485c464736f6c63430008020033",
  "linkReferences": {},
  "deployedLinkReferences": {}
}