{
  "_format": "hh-sol-artifact-1",
  "contractName": "IdentityManager",
  "sourceName": "contracts/IdentityManager.sol",
  "abi": [
    {
      "anonymous": false,
      "inputs": [
        {
          "indexed": false,
          "internalType": "string",
          "name": "id",
          "type": "string"
        },
        {
          "indexed": false,
          "internalType": "string",
          "name": "name",
          "type": "string"
        }
      ],
      "name": "IdentityCreated",
      "type": "event"
    },
    {
      "inputs": [
        {
          "internalType": "string",
          "name": "_id",
          "type": "string"
        },
        {
          "internalType": "string",
          "name": "_name",
          "type": "string"
        }
      ],
      "name": "createIdentity",
      "outputs": [],
      "stateMutability": "nonpayable",
      "type": "function"
    },
    {
      "inputs": [
        {
          "internalType": "string",
          "name": "_id",
          "type": "string"
        }
      ],
      "name": "getNameFromId",
      "outputs": [
        {
          "internalType": "string",
          "name": "",
          "type": "string"
        }
      ],
      "stateMutability": "view",
      "type": "function"
    }
  ],
  "bytecode": "0x608060405234801561001057600080fd5b50610822806100206000396000f3fe608060405234801561001057600080fd5b50600436106100365760003560e01c8063a0c201431461003b578063a309e6e11461006b575b600080fd5b610055600480360381019061005091906103fc565b610087565b6040516100629190610570565b60405180910390f35b6100856004803603810190610080919061043d565b6101aa565b005b60608160008160405161009a9190610559565b908152602001604051809103902060020160009054906101000a900460ff166100f8576040517f08c379a00000000000000000000000000000000000000000000000000000000081526004016100ef906105e9565b60405180910390fd5b6000836040516101089190610559565b90815260200160405180910390206001018054610124906106c8565b80601f0160208091040260200160405190810160405280929190818152602001828054610150906106c8565b801561019d5780601f106101725761010080835404028352916020019161019d565b820191906000526020600020905b81548152906001019060200180831161018057829003601f168201915b5050505050915050919050565b816000816040516101bb9190610559565b908152602001604051809103902060020160009054906101000a900460ff161561021a576040517f08c379a0000000000000000000000000000000000000000000000000000000008152600401610211906105c9565b60405180910390fd5b6040518060600160405280848152602001838152602001600115158152506000846040516102489190610559565b908152602001604051809103902060008201518160000190805190602001906102729291906102f1565b50602082015181600101908051906020019061028f9291906102f1565b5060408201518160020160006101000a81548160ff0219169083151502179055509050507fc4d1b0ce53cd7e7b09850635e757ee8629340b38ff5fbfdc0e16c46f7fbe691a83836040516102e4929190610592565b60405180910390a1505050565b8280546102fd906106c8565b90600052602060002090601f01602090048101928261031f5760008555610366565b82601f1061033857805160ff1916838001178555610366565b82800160010185558215610366579182015b8281111561036557825182559160200191906001019061034a565b5b5090506103739190610377565b5090565b5b80821115610390576000816000905550600101610378565b5090565b60006103a76103a28461062e565b610609565b9050828152602081018484840111156103bf57600080fd5b6103ca848285610686565b509392505050565b600082601f8301126103e357600080fd5b81356103f3848260208601610394565b91505092915050565b60006020828403121561040e57600080fd5b600082013567ffffffffffffffff81111561042857600080fd5b610434848285016103d2565b91505092915050565b6000806040838503121561045057600080fd5b600083013567ffffffffffffffff81111561046a57600080fd5b610476858286016103d2565b925050602083013567ffffffffffffffff81111561049357600080fd5b61049f858286016103d2565b9150509250929050565b60006104b48261065f565b6104be818561066a565b93506104ce818560208601610695565b6104d781610789565b840191505092915050565b60006104ed8261065f565b6104f7818561067b565b9350610507818560208601610695565b80840191505092915050565b600061052060188361066a565b915061052b8261079a565b602082019050919050565b600061054360188361066a565b915061054e826107c3565b602082019050919050565b600061056582846104e2565b915081905092915050565b6000602082019050818103600083015261058a81846104a9565b905092915050565b600060408201905081810360008301526105ac81856104a9565b905081810360208301526105c081846104a9565b90509392505050565b600060208201905081810360008301526105e281610513565b9050919050565b6000602082019050818103600083015261060281610536565b9050919050565b6000610613610624565b905061061f82826106fa565b919050565b6000604051905090565b600067ffffffffffffffff8211156106495761064861075a565b5b61065282610789565b9050602081019050919050565b600081519050919050565b600082825260208201905092915050565b600081905092915050565b82818337600083830152505050565b60005b838110156106b3578082015181840152602081019050610698565b838111156106c2576000848401525b50505050565b600060028204905060018216806106e057607f821691505b602082108114156106f4576106f361072b565b5b50919050565b61070382610789565b810181811067ffffffffffffffff821117156107225761072161075a565b5b80604052505050565b7f4e487b7100000000000000000000000000000000000000000000000000000000600052602260045260246000fd5b7f4e487b7100000000000000000000000000000000000000000000000000000000600052604160045260246000fd5b6000601f19601f8301169050919050565b7f4964656e7469747920616c7265616479206578697374732e0000000000000000600082015250565b7f4964656e7469747920646f6573206e6f742065786973742e000000000000000060008201525056fea264697066735822122048ff1b3be1d7c57966e8a9f7b7e6a1644a9d13c8414836bdaf0768f1fd997e0764736f6c63430008020033",
  "linkReferences": {},
  "deployedLinkReferences": {}
}